{
  "version": "1.0",
  "chainId": 100,
  "safeAddress": "0x849D52316331967b6fF1198e5E32A0eB168D039d",
  "safeTxHash": "0xabdbfba7e3cd8528a9734f6e7b22098d41c3e7a9127490258abfdb30afecbce9",
  "transaction": {
    "to": "0x9008D19f58AAbD9eD0D60971565AA8510560ab41",
    "value": "0",
    "data": "0x5231a1f9000000000000000000000000000000000000000000000000000000000000004000000000000000000000000000000000000000000000000000000000000000010000000000000000000000000000000000000000000000000000000000000040d9627aa40000000000000000000000000000000000000000000000000000000000000000000000000000000000000000000000000000000000000000000000800000000000000000000000000000000000000000000000000000000000000180000000000000000000000000000000000000000000000000000000000000024000000000000000000000000000000000000000000000000000000000000000c40000000000000000000000000000000000000000000000000000000000000001",
    "operation": 0,
    "safeTxGas": "0",
    "baseGas": "0",
    "gasPrice": "0",
    "gasToken": "0x0000000000000000000000000000000000000000",
    "refundReceiver": "0x0000000000000000000000000000000000000000",
    "nonce": 42
  },
  "dataDecoded": {
    "method": "setPreSignature",
    "parameters": [
      {
        "name": "orderUid",
        "type": "bytes",
        "value": "0xd9627aa40000000000000000000000000000000000000000000000000000000000000000"
      },
      {
        "name": "signed",
        "type": "bool",
        "value": true
      }
    ]
  },
  "confirmations": [
    {
      "owner": "0x849D52316331967b6fF1198e5E32A0eB168D039d",
      "submissionDate": "2024-01-15T10:30:00.000Z",
      "signature": "0x000000000000000000000000849d52316331967b6ff1198e5e32a0eb168d039d000000000000000000000000000000000000000000000000000000000000000001"
    }
  ],
  "confirmationsRequired": 1,
  "createdAt": "2024-01-15T10:30:00.000Z",
  "packagedAt": "2024-01-15T10:30:00.000Z",
  "sources": {
    "safeAddress": "user-input",
    "chainId": "user-input",
    "transaction": "safe-api",
    "confirmations": "safe-api",
    "confirmationsRequired": "safe-api",
    "safeApiUrl": "https://safe-transaction-gnosis-chain.safe.global",
    "transactionUrl": "https://safe-transaction-gnosis-chain.safe.global/api/v1/safes/0x849D52316331967b6fF1198e5E32A0eB168D039d/multisig-transactions/0xabdbfba7e3cd8528a9734f6e7b22098d41c3e7a9127490258abfdb30afecbce9/"
  }
}
